:1000000000FCFF1FE1040000C1300000E304000019
:10001000E3040000E3040000E3040000E304000044
:10002000E3040000E3040000E3040000E304000034
:10003000E3040000E3040000E30400005D3B000073
:10004000E3040000E3040000E3040000E304000014
:10005000E3040000E3040000E3040000E304000004
:10006000E3040000E3040000E3040000E3040000F4
:10007000E3040000E3040000E3040000E3040000E4
:10008000E3040000E3040000E3040000E3040000D4
:10009000E3040000E3040000E3040000E3040000C4
:1000A000E9400000E3040000E3040000E304000072
:1000B000E3040000E3040000E3040000E3040000A4
:10040000FFFFFFFFFFFFFFFFFFFFFFFF7EFFFFFF7D
:1004100072B6244880F30888234880F309880220B4
:1004200080F31488BFF36F8F02F0D2F902F075F8F1
:100430001E481F491B4A914202DA08600431FAE75C
:100440001C49194A914202DA08600431FAE71A4954
:100450001A4A1B4B9A4204DA0868106004310432CD
:10046000F8E700201749184A914202DA086004317F
:10047000FAE702F0B1F902F0ACF9144C144DAC42B9
:1004800003DA216888470434F9E701F093F8114C46
:10049000114DAC4203DA216888470434F9E70F496B
:1004A0000847000000FCFF1F00040020555555556B
:1004B00000F8FF1F00FCFF1F344E00000004002066
:1004C0001C04002000060020201200201004000060
:1004D000100400001004000010040000D5270000E4
:1004E00096E700F000F8FEE7F0B544464D46564664
:1004F0005F46F0B46B46CB60C3689D46F0BCA04637
:10050000A946B246BB46F0BD02F002FA62B6281C0C
:10051000A047002002F082FDFEE702F0E3F902F0BE
:100520003FFC02F0F5F9024A024B1360FEE7C046B9
:1005300004ED00E00000008002B471464908490063
:10054000095649008E4402BC7047C04602B4714649
:1005500049084900095C49008E4402BC7047C04606
:10056000002243088B4274D303098B425FD3030AF2
:100570008B4244D3030B8B4228D3030C8B420DD305
:10058000FF22090212BA030C8B4202D31212090293
:1005900065D0030B8B4219D300E0090AC30B8B42D1
:1005A00001D3CB03C01A5241830B8B4201D38B037F
:1005B000C01A5241430B8B4201D34B03C01A524124
:1005C000030B8B4201D30B03C01A5241C30A8B4267
:1005D00001D3CB02C01A5241830A8B4201D38B0252
:1005E000C01A5241430A8B4201D34B02C01A5241F6
:1005F000030A8B4201D30B02C01A5241CDD2C30968
:100600008B4201D3CB01C01A524183098B4201D3E3
:100610008B01C01A524143098B4201D34B01C01ACE
:10062000524103098B4201D30B01C01A5241C30846
:100630008B4201D3CB00C01A524183088B4201D3B5
:100640008B00C01A524143088B4201D34B00C01AA1
:100650005241411A00D20146524110467047FFE70D
:1006600001B5002000F006F802BDC0460029F7D011
:1006700076E770477047C046002B11D1002A0FD192
:10068000002900D1002802D00021C943080007B486
:10069000024802A14018029003BDC046D9FFFFFFE7
:1006A00003B4684601B5029803F0B8FE019B9E466C
:1006B00002B00CBC7047C04610B5002903D100F051
:1006C00007F8203002E0080000F002F810BDC04634
:1006D0001C2101231B04984201D3000C10391B0A72
:1006E000984201D3000A08391B09984201D3000936
:1006F000043902A2105C40187047C046040302028D
:100700000101010100000000000000000123002899
:1007100008D1022906D8032A04D88900024B8A1876
:100720005200D35A180070472446000010B5FFF756
:10073000EDFF10BD0120704710B5FFF7FBFF10BDA6
:10074000012070470120704710B5FFF7FBFF10BD77
:10075000704710B5FFF7FCFF10BD07B5009000F023
:1007600063FA009900F0A0FC0EBD10B504000A0069
:100770000188408800040843A188FFF7EEFF10BD00
:1007800010B504000121FFF7F0FF2100FFF7D4FFAF
:1007900010BD10B504000021FFF7E7FF2100FFF7AF
:1007A000D8FF10BD704710B500F02AFAFFF7FAFF26
:1007B000FA2002F03BFC10BD10B5FFF7F4FF01F08A
:1007C000EBFB10BD10B5FFF7EEFF01F0EBFB10BD2A
:1007D00070B501210400FFF7C8FF21000500FFF7F5
:1007E000B3FF00281FD02100280001F097F900284E
:1007F00019D02100280001F031F8002813D0210081
:10080000280001F007F900280DD06379002B11D0E2
:100810000A4B9D420BD00A4B9D4206D0033B9D42A2
:1008200008D1FFF7C9FF002070BD00F087FAFFF77D
:10083000C9FFF8E72000FFF783FFF5E7017C000020
:10084000037C000010B501F0F0FA00F035F810BD9F
:1008500010B500F036F801F0EDFA10BD0200030A01
:100860000820002B01D1130000201A0902D0130028
:100870000430C0B29A0802D013000230C0B25B0844
:1008800001D00130C0B270477047012070477047F7
:1008900070B5051CFFF7F9FF041E02D0281CFFF7F6
:1008A000F6FF200070BD704710B50400FFF7ECFFA5
:1008B000201CFFF7EDFF10BD10B50020FFF7F4FF7F
:1008C00010BD10B501F084F9FFF7EEFF10BD000078
:1008D00010B501F07DF9074B04001A78824207D069
:1008E000187001F00FFB044B18602000FFF7DCFFCD
:1008F00010BDC046000600200406002010B5041EEE
:1009000012D0822811D101F06DF980070CD4392062
:1009100000F0A4F900F0BEF9502002F087FB392066
:1009200000F0A6F900F0B6F910BD83280DD101F052
:1009300059F9C007F8D4532000F090F900F0AAF953
:10094000642002F073FB5320EAE784280DD101F004
:1009500049F94007E8D4472000F080F900F09AF9FF
:10096000642002F063FB4720DAE7031FDBB2A02B11
:100970000FD8184B0100186801F086F9002804D040
:10098000200000F075F900F085F9200000F066F90C
:10099000C8E703002033DBB2072B07D80723034047
:1009A00001209840C0B200F09DF9BBE703005B3323
:1009B000DBB2022B04D8243CA0B201F031F9B3E73A
:1009C0005834E4B21A2CAFD8034B6400E05A01F05B
:1009D00041F9A9E7000400203C46000010B50028BA
:1009E0000FD082280ED101F0FDF8800709D53920FB
:1009F00000F034F900F04EF9392000F039F900F038
:100A000049F910BD83280AD101F0ECF8C007F8D5E8
:100A1000532000F023F900F03DF95320EDE784283E
:100A20000AD101F0DFF84007EBD5472000F016F9B6
:100A300000F030F94720E0E7031FDBB2A02BDCD940
:100A400003002033DBB2072B07D807231840063BEF
:100A50008340D8B200F04EF9D1E703005B33DBB23C
:100A6000022B03D8002001F0DBF8CAE75830C0B2EF
:100A70001A28C6D8002001F0EDF8C2E70B0442792D
:100A800070B5180F012802D9042833D070BD0D05A8
:100A90002D0F1B0E0F2B00D92D01CCB2002A14D024
:100AA000002D0BD023002033DBB22800072B01D907
:100AB000002C07D100F016F900F0ECF82000FFF749
:100AC0001DFFE3E700F024F9F6E72000FFF786FFBB
:100AD000002DDBD023002033DBB22800072B01D907
:100AE000002C04D100F006F900F0D4F8CEE700F0B5
:100AF00017F9F9E70805800F09D00128C6D10020B1
:100B0000824201D08905880D01F0A4F8BEE7002AD1
:100B100001D08805800D01F083F8B7E710B5040017
:100B20002188407900F092F8011C2000FFF7A6FF11
:100B300010BD037910B50400002B09D0FFF748FE63
:100B4000002805D02000FFF7E9FF2000FFF721FE75
:100B500010BD1FB50B0ADBB200900191002B01D034
:100B600000F0E6F8009B02AC02936B469B88A380E2
:100B7000DBB2002B03D12000FFF7DBFF1FBD2000FD
:100B8000FFF7FEFD0028F6D1F8E770B505000C0070
:100B9000FFF7B4FE002C03D12800FFF71FFF70BD44
:100BA0000120013C02F042FAA4B2F3E7002110B5A3
:100BB000392800D15031FFF7E8FF10BD10B50028EB
:100BC00003D000F08FF800F065F810BD10B50028D4
:100BD00003D000F08FF800F05DF810BD10B50020D4
:100BE00001F01EF8002001F035F800F0A1F800F047
:100BF00051F810BD10B500F045F8FFF7EFFF10BD3C
:100C000010B500F07FF8FFF7F5FF10BD704710B585
:100C1000FFF7FCFF10BD000010B5FFF7F8FF014B18
:100C2000188010BD0806002007B5024B1888FFF792
:100C300015FE0EBD0806002007B501AB188001980F
:100C4000FFF7F2FF019900F03FFA0EBD07B501ABC7
:100C500019800198FFF7F0FF0EBD000010B5034B9F
:100C60000100186801F076F810BDC04600040020AD
:100C700010B5034B0100186801F080F810BDC046A4
:100C80000004002010B5024B186801F08BF810BD6D
:100C90000004002070B50C4B0C4A1C680C4B1278F9
:100CA0001B780C4D1343290020222000237003F0F1
:100CB00081FC002807D020222100280003F090FCAE
:100CC000200000F093FF70BD000400204A060020C1
:100CD0004B0600200A060020014B18787047C046DA
:100CE0004B060020024B1A78104318707047C0461C
:100CF0004B060020024A1378834313707047C046A6
:100D00004B0600200022014B1A7070474B06002052
:100D1000024B1A78104318707047C0464A060020EC
:100D2000024A1378834313707047C0464A06002076
:100D30000022014B1A7070474A06002010B50020AF
:100D4000014900F07EFD10BDFFFF000010B500203E
:100D500000F038FD024BC01843425841C0B210BDEC
:100D60001A01FFFF10B5022000F074FC10BD10B591
:100D7000032000F06FFC10BD10B5042000F022FD30
:100D800010BD10B50100042000F05BFD10BD10B5D2
:100D900001000F2000F059FD10BD10B50100132017
:100DA00000F053FD10BD10B50020FFF7F6FF10BD99
:100DB00010B50020FFF7EBFFFFF7F5FF10BD0000B7
:100DC00013B500201F4900F03CFD0021022000F077
:100DD00034FD0021032000F030FDA02100241A4B37
:100DE000042049011C8000F02CFD2100062000F0A9
:100DF00024FDFF21072000F020FD2100082000F045
:100E000024FD2100242000F018FD2100172000F00F
:100E100014FD21000C2000F010FD21000D2000F039
:100E20000CFD00230022684600920193182108322D
:100E300000F00FFD2100202000F007FDFFF7B8FFB4
:100E400013BDC046E6FE00000806002010B5FFF7FF
:100E5000B7FF10BD10B501000E2000F0EEFC10BD74
:100E600073B501F087F8094D04002B8883420CD03C
:100E70006B4600261E8001F07DF86B469E805880F0
:100E800000980199FFF765FE2C8073BD4C06002089
:100E900010B501F037F8024B1860024B186010BD16
:100EA00058060020540600207047704710B5FFF721
:100EB000FCFF10BD704710B5FFF7FCFF10BD01200F
:100EC0007047000010B5044800F0EAF9FFF7ECFFA6
:100ED000FFF7ECFF10BDC0469912000001207047DB
:100EE00010B5FFF7FBFF10BD7047704710B5FFF757
:100EF000FBFFFFF7FAFF10BD10B500F0F1F9FFF7A7
:100F0000D2FC10BD10B500F0F9FF00F0C9FAFFF7F0
:100F1000F3FFFFF7D0FF10BDF0B587B0FFF7CFFFAD
:100F2000002805D1FFF79CFFFFF7D2FC07B0F0BD0A
:100F300000F0CEFA2A4C0020257800F0F5F9854221
:100F40000BD10120657800F0EFF9854205D1022030
:100F5000A57800F0E9F98542E4D0224B1B789B0785
:100F600001D500F0E7F9FFF7BBFF019400240390DF
:100F7000200000F0D9F9019B05001B78984225D08C
:100F8000002601274340DBB20293029B1F4215D08B
:100F9000039B002B12D004AB1E705C7000F0EAFFC4
:100FA000012204AB1A7158803B002B405A1E93411A
:100FB00004AA537104980599FFF7CBFD01367F0011
:100FC000F6B2FFB2042EE0D1019B1D70019B0134EB
:100FD0000133E4B20193032CCAD1FFF759FFA3E711
:100FE0004E0600205C06002070B500F077F8040083
:100FF000E72816D8DF284CD8A72809D8A4283AD83B
:10100000012846D0031F9BB2A02B42D9002440E008
:10101000C22836D90300CD3B9BB2122BF6D8A023B1
:101020002BE0A023DB01984217D280239B0198423A
:1010300031D2F826431EFF3B9BB27601B342E5D284
:10104000000AC0B200F0DCF80500E0B200F046F89B
:101050002D023540284384B21BE0114BC3189BB2CC
:101060001F2BD3D81F20204000F0CAF8F823040219
:101070005B011C400DE08023243CDB011C43A4B237
:1010800007E05834074BE4B26400E35A8824E401D3
:101090001C43201C70BDC0B200F020F80400F8E72B
:1010A00060ADFFFF7246000007B50B0401AA118076
:1010B000190E0023022905D81278032A02D8FFF757
:1010C00035FB030018000EBD07B501AB198001996F
:1010D000FFF7EAFFFFF788FF0EBD0000030010B521
:1010E000E7280AD8DF280AD8312800D173E00FD8C2
:1010F000292866D02A2800D174E0180010BDE038F5
:101100000728FAD8FFF718FA18F927303DF9474CA5
:10111000392808D0822806D03528EED1374A1278EF
:101120009206EAD506E0354A1178890761D15278EE
:101130001207E2D52923E0E73048012102781400A4
:101140000C400A4245D140780842D6D02300D2064E
:10115000D3D4E323D1E7294A12785107CDD5002310
:10116000D206CAD4E333C8E72449E2230A785007F9
:10117000C3D4487801210400023B0C400842E5D06A
:10118000BBE71E4A51788907B7D512780023D206EB
:10119000B3D4E733B1E7194A12781107F6D4ACE7B4
:1011A0001649E6230A781007A7D4487802210400DC
:1011B000023B0C400842A0D12300D2069DD4E72375
:1011C0009BE70E4A1178890615D45278120700D48D
:1011D00093E7392391E7094A1278520600D48CE745
:1011E0002A238AE7054A1278520600D485E731237C
:1011F00083E7E02381E735237FE7C046081000201E
:1012000030B5244C21784B070DD514220240043A06
:1012100053425A4118230340083B5D426B419A42B6
:1012200001D00C2358400B070DD514220240143A6C
:1012300053425A4118230340183B5D426B419A4286
:1012400001D00C2358406478E3070DD511220240E9
:10125000013A53425A4118230340083B5D426B4117
:101260009A4201D009235840A4070DD5112202400B
:10127000113A53425A4118230340183B5C426341E0
:101280009A4201D009235840C90601D51823984332
:1012900030BDC04608100020002070470020704775
:1012A000014B18607047C0460404002010B5FFF7DA
:1012B00045FD10BD10B500F00BF90A2001F0B6FE97
:1012C00000F006F9002000F02FF8C00703D5FFF763
:1012D000EDFF00F061FE10BD10B5FFF7EBFF10BD94
:1012E00010B5FFF733FD002801D1FFF7AFFDFFF781
:1012F00039FD064B1870FFF73FFD054B1880FFF7CF
:10130000EBFFFFF734FDFFF787FC10BD5C06002004
:1013100008100020704710B5FFF7FCFF10BD7047A4
:1013200010B5FFF7FCFF10BD014B185C7047C046BD
:101330000D100020704710B5012001F077FE10BDA0
:10134000C046C046C046C046C046C046C046C0466D
:10135000C046C046C046C046704710B5FFF7EBFF19
:1013600010BD000010B501F0D3FA074B1A689A427D
:1013700007D0DB6899689368994202D2034801F06C
:1013800055FA62B610BDC04680100020A846000085
:1013900010B5040072B601F0A5FA0548210D03222C
:1013A000C9B2204002F0FEFBFFF7DCFF10BDC046D3
:1013B000FFFF0FF010B50B48FFF7EAFF0A48FFF7F1
:1013C000E7FF0A48FFF7E4FF0948FFF7E1FF094894
:1013D000FFF7DEFF0848FFF7DBFF0848FFF7D8FFFD
:1013E00010BDC046C0F00F4000F02F40C0F04F408D
:1013F00080F02F40C0F06F4040F02F4040F01F4081
:10140000F7B5234B8A00D4580D000190631C33D0EC
:1014100072B6204E01F066FA2640240DE1B230008B
:10142000062202F0BFFBE3B2012422009A40B26020
:10143000FFF798FF0026FFF783FF174B174F009326
:101440003868431C19D100231E43009B64000437F5
:10145000F6B2E4B2BB42F3D10D4BAA00D058431C04
:1014600001D0FFF795FF31004B1E99412800C9B20A
:10147000FFF773FF019B5E55F7BD064B010DC9B227
:10148000184002F031FC0028DDD12300DCE7C04623
:10149000C4460000FFFF0FF0C4460000B446000041
:1014A00010B50324FFF786FF22000021064803F051
:1014B0008FF822000021054803F08AF8200000F090
:1014C00039F8FFF728FF10BD0D1000200A1000208A
:1014D00037B50322002101A803F07AF8002101A802
:1014E000FFF78EFF012101A8FFF78AFF022101A863
:1014F000FFF786FF0D4C0322200001A903F05AF8E4
:1015000005006B1E9D41EDB2002804D0032220008F
:1015100001A903F065F82B0003220549200000F023
:101520000BF80400FFF7FCFE20003EBD0A1000206F
:101530000D10002070470000F7B506000D00134F96
:101540000192002B05D001233B7000F0DBFC104B17
:1015500018603C78002C02D100242000FEBD0C4B0A
:10156000186800F013FD0428F6D931002800019A0C
:1015700003F020F8002807D031002800019A03F07A
:101580002FF800233B70E8E70400FAE76406002028
:101590006006002010B500F0D3FFFFF7B3FC00F0A9
:1015A000E3FF10BD10B500F0E7FFFFF7B5FC01F059
:1015B00005F810BD10B500F055FC00F0BCFFFFF7BA
:1015C00081FCFFF7E7FFFFF7EDFFFFF78FFCFAE77E
:1015D0000F4B10B50B40C021C90419430D4B1960C6
:1015E0000D4B1A6072B601230C4C03432000984740
:1015F00062B622787023110019401A4200D021707F
:101600008023074ADB00D1680B43D36010BDC0467E
:10161000FCFFFF00040002400800024000000240FE
:10162000003000F0074B084808491A88824203D16D
:10163000023B074A136070479A1C8A42F9D2130092
:10164000F3E7C04600F80000FFFF000000000100C3
:101650006806002070B50C4D04002B68002B02D1E9
:10166000FFF7E0FF2B68FF207F2C03D80500074A17
:10167000934200D270BD11880E002E40A64200D1C8
:10168000080A0232F4E7C0466806002000F80000AD
:10169000F0B5434FA7B0050001910E22414902A8C1
:1016A0003C6802F09DFF7F2D13D8002C02D1FFF77C
:1016B000B9FF3C68A11C3C4CA1420FD2019B396090
:1016C0001B022B438A0706D4384A1A4302A8FFF7A5
:1016D0007FFF27B0F0BD364A1B04F6E78022FF21CA
:1016E00006A802F075FF0026A446324B634521D3BD
:1016F000102202AB9B182F4C019AEA5425002A4B6A
:101700009D4225D30025102202AB9B185B5D0E3A4B
:101710002240FF2B04D0002A38D11E022E4302346F
:101720000135802DEFD13C60A307D2D51F4A21009F
:101730003243CBE780221E88164207D1FF213200B8
:1017400010200A4002A9340A09188C540233CDE74C
:101750009023194A1B052B43136072B6012202AB7A
:1017600016481343984762B6144970230A78160046
:101770001E401A4200D00E708023114ADB00D1684F
:101780000B43D3608023DB00ED18B8E72A0416432F
:101790001B061E433200210002A8FFF719FFBEE717
:1017A00068060020F4450000000001000000FFFF73
:1017B000FFFF000000F800000400024000000240AB
:1017C000003000F070B50400FFF744FF0500601C16
:1017D000FFF740FF0002284380B270BD70B50D00D6
:1017E0000400C9B2FFF754FF290A601CFFF750FF3D
:1017F00070BD70B50D000400C9B2FFF749FF290A9A
:10180000601CC9B2FFF744FF290CA01CC9B2FFF746
:101810003FFF290EE01CFFF73BFF70BD70B50B00CA
:1018200004008D18AB4200D170BD180021785E1CF9
:101830000134FFF72DFF3300F4E710B5FFF728FF61
:1018400010BD10B5FFF7CAFF10BD10B5FFF7D1FFEF
:1018500010BD10B5FFF7E2FF10BD000070B5050028
:101860004879002800D1CCE0674BEB18222B00D937
:10187000ABE0FFF781FA654C654B2080E818212822
:1018800012D8FEF763FE3FAD48191C4B1F4E572878
:10189000A52B5A2E5D8731608F37676D22512554F5
:1018A0003B6A7A99A31543B50123227813434FE08D
:1018B0000823627813432CE002232278F6E70423FE
:1018C0002278F3E708232278F0E701236278F1E732
:1018D00002236278EEE710232278E7E720232278BC
:1018E000E4E740232278E1E7FFF78AF980232278B2
:1018F0005B42DBE70C2322789A43D7E70323627825
:101900009A43D7E701222378934321E008226378A2
:101910009343637053E002222378F5E7042223788F
:10192000F2E708222378EFE701226378F0E702224A
:101930006378EDE710222378E6E720222378E3E7B7
:1019400040222378E0E7FFF75BF97F2223781340FA
:10195000237034E00C222378D6E703226378D7E79C
:101960000122042023785907C90F8A439100834339
:101970000B430821D2008B4398E7012108006378CC
:10198000DA07D20F904302228B4303434100934373
:101990000B43BEE7012223785906C90F8A439201FF
:1019A0004021E8E7FFF72CF901222378D9094A40C2
:1019B0007F21D2010B4079E70120FFF74BFA208805
:1019C000FFF7DFF9FFF71CF9002070BD0020F4E7F6
:1019D00001222378D906C90F8A4312011021CAE7D0
:1019E000012108002378DA07D20F90430200C2E7F2
:1019F000012263781907C90F8A430821D2008B435B
:101A000058E70120E1E7C0460090FFFF08100020E2
:101A1000FF8FFFFF124A10B501230C00904215D131
:101A2000FFF75AF9617903000E4A002910D0AA2164
:101A30000B401900481E814129201170002B00D055
:101A40000C30FFF70BF9FFF725F90023180010BD44
:101A500013782920002B00D00C30FFF709F9F2E7AA
:101A6000167C00006C060020F8B5140042791D00B9
:101A700006AB1F78274B002A11D01C7000F07AFAB1
:101A8000254B188023002033DBB2072B06D8072311
:101A9000012023409840C0B2FFF790F8F8BD1E78AF
:101AA000A6422DD11C4B188800F069FAC72827D808
:101AB0002C002034AE4215D033002033DBB2072B8C
:101AC00006D8072301201E40B040C0B2FFF77EF8C1
:101AD000E3B2072B06D8072301202B409840C0B261
:101AE000FFF76CF83800E4B2FFF760F8072CD5D8A0
:101AF000072301201D40A840C0B2FFF767F8CDE7DB
:101B000023002033DBB2072BC8D8072301201C4059
:101B1000A040F1E7700600206E060020204B13B5B0
:101B2000C0180C00062833D8FEF710FD141A040E56
:101B300020262C0026230093BB331A0019492000CD
:101B4000FFF792FF002016BD27230093BE331A0033
:101B50001549F4E72623E02200931449BB33EEE74E
:101B60002723E42200931249BE33E8E72623E2222A
:101B700000931049BB33E2E72723E62200930E4986
:101B8000BE33DCE72823E52200930C49273BD6E748
:101B90004B79002B02D00022094B1A700120D2E7AA
:101BA000E883FFFF1A7C00001B7C0000187C00000B
:101BB000197C00001C7C00001D7C00001E7C0000C5
:101BC00070060020014B18607047C0467806002060
:101BD000034B10B51B68181E01D01B68984710BD39
:101BE0007806002010B5FFF7F3FF10BD094B10B5C4
:101BF0001B68002B0DD0084A1278002A07D0074A2C
:101C000012787F2A03D902784270062202705B683C
:101C1000984710BD78060020080400200810002016
:101C200007B50A4A0300118881420DD01080084A86
:101C30001268002A08D0032101A8017069464B717F
:101C40001B0A8B71D368984707BDC04674060020F5
:101C50007806002007B50A4A0300118881420DD09A
:101C60001080084A1268002A08D0042101A80170D7
:101C700069464B711B0A8B71D368984707BDC046F4
:101C80007206002078060020030010B5081E15D04B
:101C9000114A1278002A12D0104A12787F2A0ED9DF
:101CA0000020CC08EF2909D807221140063A8A40C3
:101CB0001C19A0781040431E9841C0B210BD9A1C58
:101CC00008331078884204D001329A42F9D10020BA
:101CD000F4E70120F2E7C0460804002008100020C5
:101CE0000123002270B55B42851CAC5C8C420BD09A
:101CF0005E1C02D1002C00D153B20132062AF4D16D
:101D00005A1C01D0C318997070BD002210B5831CF5
:101D100008301C788C4200D11A7001338342F8D10C
:101D200010BDCB08EF2907D8C01807231940063B80
:101D30008B408278134383707047CB08EF2907D814
:101D4000C0180723012219408A4083789343837087
:101D50007047000010B5074B1B78002B06D0064BD0
:101D60001B787F2B02D9FFF7DCFF10BDFFF7B8FF10
:101D7000FBE7C046080400200810002010B5074B00
:101D80001B78002B06D0064B1B787F2B02D9FFF760
:101D9000D4FF10BDFFF7B9FFFBE7C04608040020E1
:101DA0000810002010B5074B02301B78002B04D020
:101DB000054B1E221B787F2B00D80622002102F043
:101DC00007FC10BD0804002008100020704710B563
:101DD000FFF7FCFF10BD000010B5034B0130C0B28F
:101DE0001870FFF7F4FF10BD7C060020032010B52B
:101DF000024B1870FFF7EBFF10BDC0467C060020B9
:101E000010B5FFF7E9FF10BD012010B5024B1870A7
:101E1000FFF7DDFF10BDC0467C06002010B5FFF7C0
:101E2000F3FF10BD70477047704710B5FFF7FCFF18
:101E300010BD704710B5FFF7FCFF10BD10B5FFF7E0
:101E4000F1FF0024FFF744FBFFF7EDFF2000FFF751
:101E50006BFA002804D10134E4B2032CF6D110BD92
:101E60000120FCE710B501F055F900F001FD10BDAF
:101E700010B5FEF7E7FC112001F0D8F810BD10B541
:101E8000FEF740FFFEF754FFFEF7FCFE0020FFF7D1
:101E9000C7FE0020FFF7DEFEFEF7DAFC10BD0000F3
:101EA00010B500F035FD074B1A689A4207D0DB6881
:101EB00099689368994202D2034800F0B7FC62B671
:101EC00010BDC04680100020D046000010B572B68C
:101ED00000F008FD054BDA69054B1A600022054B3E
:101EE0001A60054B1A60FFF7DBFF10BD8010002061
:101EF00088060020840600208006002010B5FFF729
:101F0000E5FF10BD70B572B600F0ECFC144B15483F
:101F10001549DC690D680368144AE41AA54208D91A
:101F2000293BFF3B036013682934293BFF3BFF3407
:101F3000136015680C60FFF7B3FFFA22002320003E
:101F40009200002102F03CFA0023094A801859410E
:101F5000FA2200239200FEF78FFB281870BDC046BE
:101F600080100020880600208406002080060020C3
:101F7000E703000010B5FFF7C5FF80B210BD10B534
:101F80000400FFF7BFFF001B80B210BD10B50400B6
:101F9000FFF7B8FF001B10BD10B5642001F046F834
:101FA00000BE10BD7047704710B500F0E1FC62B68E
:101FB00010BD10B572B600F0C3FCFFF7F5FF10BD01
:101FC00070B50C00160019000023074DDA300288A6
:101FD00020026B603043054B00F0F2FA286068681D
:101FE000002800D0280070BD8C060020900600203C
:101FF00010B500F08DFC074B1A689A4207D0DB68D9
:1020000099689368994202D2034800F00FFC62B6C7
:1020100010BDC04680100020DC460000DA30084ABF
:1020200001781378022907D1012B01D0062B02D1A8
:10203000044B52781A707047024A1370FBE7C0468F
:10204000940600201807002070B505000E0000F06F
:10205000DFFC074C2368002B02D0200000F03EFD7F
:10206000330029002000034A00F01CFD70BDC0466B
:1020700000070020F920000010B50F24054A117850
:102080004B1C2340044C24789C4202D0034C137018
:10209000605410BD201000202110002010100020DE
:1020A00010B50400080005291DD8FEF74FFA1A1CC8
:1020B000031A1A1D72B600F043FC012120000B4ADE
:1020C00001F0E2F802212000094A01F0DDF8FFF7F3
:1020D0006BFF084B1B78002B02D00520FFF7CCFFCD
:1020E0000220FFF7C9FF10BD0520FAE71C470000DA
:1020F000F84600009606002070B50C0072B600F09D
:102100001FFC2378042B02D0FFF74EFF70BD154B48
:102110001B78DB09F8D1144D2B78002BF4D0134B2E
:102120001B78002BF0D023899B0705D408230121BD
:1021300020000F4A01F03EF9FA220023287892008D
:10214000002102F03DF900230A4A80185941FA2281
:1021500000239200FEF790FA21008000FFF774FF41
:10216000D2E7C046081000201A070020080400200B
:10217000E0060020E703000001007F2270B5D431A3
:102180000B7804001A40212A00D08EE002005BB2D6
:10219000D532002B37DA1378022B2BD0032B1CD02F
:1021A000012B00D081E00300D8331B78C8300839F8
:1021B000053A002B06D14C4C0460082008601360DF
:1021C000012070BD2500D635484B2D78DA340360E8
:1021D0001D7023780B600023F1E70300D8331B88C0
:1021E000002B62D102004249C832116001215160C6
:1021F000D0341CE003003F4AC8331A6001225A6001
:10220000D034002313E013780A2B44D00B2B10D0CA
:10221000092B4AD10300D8331B78012B45D8030082
:10222000354AC8331A6002225A60344BD0342360D6
:10223000C6E70300D8331B88002B26D10300D63312
:102240001D782B4B2A00511E8A411A70002D1CD17B
:10225000284E3378002B18D072B600F071FBFA22AA
:10226000002392002900307802F0AAF80023244AC3
:1022700080185941FA2200239200FEF7FDF921004F
:102280008000FFF7E1FEFFF78FFE22000023C83237
:1022900013605360ACE703001A4AD7331B78154E1E
:1022A00015783370ED09F0D1D4E7174B0A889A42BC
:1022B00001D0002085E72300D8331A785B7821000D
:1022C0001B02134322006068D632D731456812786A
:1022D00020000978A8470028EBD023004268C833C3
:1022E0001A6002688BE7C046E0060020C0060020A6
:1022F000080400201A070020940600201D2000007A
:10230000E70300000810002081060000102210B52D
:102310000021044802F05CF90022034B1A70034BC1
:102320001A7010BD10100020201000202110002075
:10233000F8B50F2501240021214B224A1E7813787D
:10234000B34230D1002900D01370F8BD13701E4B7A
:102350001C701E4B19780800431E9841C0B2FFF74D
:1023600045FDE8E713700022174B1A70FFF787FD51
:10237000164B19780800431E9841C0B2FFF740FD84
:10238000D9E71370114B19780800431E9841C0B269
:10239000FFF722FDCFE7002113700800F8E7137064
:1023A000FFF732FDC7E71800094F0133385C210001
:1023B0002B400528C4D8FEF7BFF8F2C3E4EEC9D518
:1023C000201000202110002096060020031200207B
:1023D000101000200E4A0F4B70B5D35805000E4C5C
:1023E0005B0303D51022637A93436372280000F0E5
:1023F00011FF322000F01AFE2800084900F0E4FE28
:102400001023627A134300226372054B1A6070BD79
:102410000070044034100000FF200740E846000030
:10242000000700200B4A0C4B70B5D35805000B4C2D
:102430005B0303D51022637A93436372280000F094
:10244000E9FE2800064900F0BFFE1023627A13431C
:10245000637270BD0070044034100000FF2007401C
:10246000E8460000014B18787047C0461807002066
:10247000F8B504000E00170072B600F033FA0F4DE5
:102480002B78042B02D0FFF7B3FDF8BD0123A34046
:102490002A8913420AD0A31C9B00EB185B680A210F
:1024A00058690C3000F0CCFD0130ECD03B0032001C
:1024B0002100280000F07EFFE5E7C046241100203F
:1024C00010B50D4B04001B78002B0AD10100082227
:1024D0000120FFF7CDFF20222100084802F080F8FC
:1024E00010BD074B1B787F2B03D808220120210049
:1024F000EFE720220220FAE708040020E00600208F
:1025000008100020704710B5010003220220FFF7D9
:10251000AFFF10BD70477047704710B5FFF7FAFF67
:1025200001F02EFAFFF7F7FF10BD10B501F02CFAFD
:10253000FFF7F2FF10BD10B5FFF770FC10BD0000F3
:1025400010B5FFF7E3FE0548FFF744FF044B054ACB
:1025500032201A6000F06AFD10BDC0462411002030
:102560001C0700200C04002010B5024B1868FFF770
:1025700029FB10BD1C07002070B5FFF7D9FE0E4CDB
:1025800002252378052B11D070BDFFF771FC2300C5
:10259000DC331B882B4209D0FFF750FC002805D004
:1025A000200000F033FF2000FFF73CFF2378052BCD
:1025B000EBD0FEF76FFBE7E7241100207047000027
:1025C00010B5040A032C11D009D8012C2BD00020FF
:1025D0000200022C01D1184A3B301A6010BD212C98
:1025E0000FD0222C16D000200200F6E7C1B2002046
:1025F00002000229F1D8114A880082581048405C34
:10260000EBE7002912D0002002000129E5D10D4A94
:102610000930E2E700290CD0002002000129DCD1BA
:10262000094A6D30D9E71220084AD6E70920084A3E
:10263000D3E74420074AD0E778470000444700002A
:1026400040470000A3470000C5470000B347000013
:102650008A4700003248000010B500F059F9074BD6
:102660001A689A4207D0DB6899689368994202D247
:10267000034800F0DBF862B610BDC04680100020B1
:1026800076480000024B034A1A60034A5A607047BA
:1026900024100020201200200018002070B50C002B
:1026A0000600150000F0B4F9002C02D0631E1C4295
:1026B00002D0094800F0BAF8084B604259681C681B
:1026C0008E1B3040451BAC4203D8A94201D35D604C
:1026D00070BD0020FCE7C0468248000024100020A6
:1026E00070B504000D00160072B600F0FBF8320061
:1026F00029002000FFF7D2FF0400FFF7ADFF200004
:1027000070BD0000054B064A10B51A60002205484E
:102710005A609A6000F0C6FC10BDC0462007002039
:10272000E12600002C070020F8B504000E0015007B
:102730001F00002806D0032904D9032A02D9531EFA
:102740001A4202D0044800F071F800236660A560C8
:10275000E7602360F8BDC0469648000010B500222F
:10276000FFF79CFF10BD000070B50F4C200000F07B
:1027700099FC0E4D0E4B0422236114212B000D48B1
:10278000FFF7D2FF0C4B042263620C4B1C21A362A7
:102790000B482B00FFF7C8FF0A4BE3630A4B236487
:1027A0000A4B636470BDC0462C1000205D270000FA
:1027B0003C10002040100020501000205410002039
:1027C00058100020681000206C10002070100020AD
:1027D00070477047FEE7000070B5124C62682068D1
:1027E0001100A3688B4219D8D11E00208B4203D35D
:1027F00003339B1A9B0898001018E368C11E00223F
:10280000994203D803331A1A92089200002101F06A
:10281000DFFE054B10349C42E0D170BD20C820C1C2
:10282000E0E7C046B04800003049000072B603221D
:10283000024BD867024B1A70FEE7C0468810002092
:102840007810002010B500F063F8074B1A689A4220
:1028500007D0DB6899689368994202D20348FFF772
:10286000E5FF62B610BDC04680100020444900005C
:10287000012310B5094C237000236360FFF702FFAA
:10288000FFF740FFFFF770FF0549064800F0B8FA70
:1028900002232370FFF7D6FF10BDC046781000203A
:1028A0009449000080100020044B10B558688368DC
:1028B000012B02D00248FFF7B9FF10BD80100020A5
:1028C00030490000064B10B5DC6800F0A1F8083470
:1028D000E27F002A01D0013AE27700F023F910BD2F
:1028E0008010002010B5074C074B22008C321B686B
:1028F0001268134302D00548FFF798FF01238C3478
:10290000236010BD801000200811002053490000F2
:10291000084B10B51B68084C002B04D123008C33E6
:102920001B68002B02DC0548FFF780FF00238C3476
:10293000236010BD081100208010002058490000BD
:10294000084B10B51B68084C002B04DD23008C33AA
:102950001B68002B02D00548FFF768FF01238C3469
:10296000236010BD08110020801000205D49000088
:10297000084B10B51B68084C002B04DD23008C337A
:102980001B68002B02DC0548FFF750FF00238C3446
:10299000236010BD08110020801000206249000053
:1029A00010B572B6094B0A4C1B68002B04DB2300E0
:1029B0008C331B68002B02D00648FFF737FF8834A2
:1029C00023680133236062B610BDC04608110020A1
:1029D000801000206749000010B572B6094B0A4C00
:1029E0001B68002B04DD23008C331B68002B02D0F6
:1029F0000648FFF71BFF88342368013B236062B65B
:102A000010BDC04608110020801000206C49000055
:102A1000064A10B51268064B002A03DB8C331B688C
:102A2000002B02DC0348FFF701FF10BD0811002056
:102A30008010002071490000064A10B51268064B4C
:102A4000002A03D18C331B68002B02DC0348FFF7FC
:102A5000EDFE10BD08110020801000207749000015
:102A6000F8B505000E000D4F3C69A3689E420CD8D6
:102A70006368AE606B602C601D60A36865609B1B23
:102A8000A36001235B42BB61F8BDAC4202D10448A4
:102A9000FFF7CCFEA3682468F61AE6E78010002052
:102AA000B5490000F8B504000D0016001F00FFF73F
:102AB000AFFF002C03D0002E01D0002D02D106481C
:102AC000FFF7B4FE002329002761E6602000636160
:102AD000FFF7C6FFF8BDC046C549000010B50400A9
:102AE000FFF796FF002C02D10C48FFF79FFEFFF77F
:102AF0008FFF2368002B02D10848FFF797FE236859
:102B0000A1689A6852189A60626813605A6000233C
:102B100001222360024B52429A6110BDA849000075
:102B20008010002070B5FFF773FF134D134AEB6957
:102B30000133EB612B69934206D09A68013A9A609F
:102B40002C69A368002B00D070BD226861680A6000
:102B500051602360FFF70CFF62B62000E368216933
:102B6000984772B6FFF7ECFE61690029E8D02000B3
:102B7000FFF776FFE4E7C0468010002090100020A9
:102B800070B5451DEB7F0400002B01D00F2B02D147
:102B90000848FFF74BFE0023EB77A369A2681B6888
:102BA00099689142FBD25A682360626020001460E9
:102BB0005C6070BDF049000070B5451DEB7F0400FE
:102BC000002B01D00F2B02D10848FFF72FFE002366
:102BD000EB77A369A2681B6899689142FBD85A6891
:102BE00023606260200014605C6070BDD04900000A
:102BF00001210D4B70B51C68D868226853601A60BB
:102C0000621DD177DC60FFF7D7FF0500EFF3098382
:102C1000026A243B9A4202D90448FFF707FE2900C2
:102C20002000FDF761FC70BD801000207D49000090
:102C300070B50C0072B6FFF783FE631DD87F0C28B9
:102C40000BD8FDF783FC100A0A071A140A1A0A0A9D
:102C50000A0A1A000022A36A1A6001235B422000BC
:102C6000A362FFF78DFFFFF783FE62B670BDA56A12
:102C7000FFF7CEFEAB680133AB6062682368136078
:102C80005A60EAE710B50400FFF7C2FE002C02D13B
:102C90000348FFF7CBFD2000FFF772FF10BDC046D1
:102CA000034A000070B5164D0600EC68FFF7C4FE3D
:102CB000FFF7FAFD844202D11248FFF7B7FDA3697E
:102CC000AB4202D00F48FFF7B1FD1422631DDE773F
:102CD0002E680333DA773368133A5D602B60731D17
:102CE000DA77EE60EFF30983226A243B9A4202D935
:102CF0000548FFF79BFD30002100FDF7F5FB70BD97
:102D000080100020E24900007D49000070B50D00F0
:102D10000F4B86B0DE680400FFF78EFE6B1C13D0ED
:102D2000330029000B4A6846FFF7BCFE2000FFF77E
:102D3000B9FFFFF76DFE009B002B02D06846FFF73E
:102D4000CDFEB06A06B070BD2000FFF7ABFFF8E71C
:102D500080100020312C000070B5064CE568FFF7AC
:102D60006BFE23689A68AB689A4201D9FFF740FF6F
:102D700070BDC04680100020084BDA681B6808321E
:102D800099681368D27F100099425041C0B2002A5E
:102D900002D08B429B4158427047C04680100020B1
:102DA000144B70B51D68D8682A68012153601A60F9
:102DB000DD6003006A1DD1770833DB7F002B14D15F
:102DC000FFF7DEFE0300142204000833DA77EFF386
:102DD0000983226A243B9A4202D90748FFF726FD5D
:102DE00028002100FDF780FB70BDFFF7E5FE040021
:102DF000EDE7C046801000207D49000030BFFDE7B0
:102E0000F0B5244D04006B680E0087B0002B02D093
:102E10002148FFF70BFD6C60002520002563A663A9
:102E200000F056F923002833A362E362183B2361C4
:102E3000636101235B42A361184BE561D9692B00F3
:102E40000A00226263622300012721008433246088
:102E50006460A5606563124A1D605D609F6020002C
:102E600080233C3100F04CF87368E06003620D4B46
:102E70000530C777F068316900930B4B01900291E0
:102E800004930397059500F059F8684600F09AF806
:102E900007B0F0BD781000200F4A0000801000201D
:102EA000804A00008C490000FD2D000010B572B66C
:102EB000FFF718FD10BD000010B5FFF729FD074B07
:102EC0001A689A4207D0DB6899689368994202D2DF
:102ED0000348FFF7ABFC62B610BDC046801000206F
:102EE0005D4A000010B5041E02D10448FFF79EFCA5
:102EF00021000820FFF70AFF10BDC046464A000027
:102F000010B58B6004000B640023CA61CB638B6334
:102F10002200094B28324B620B000A61E26A10332F
:102F20008C614A611360E3621C33CB620433080096
:102F30000B634B6310BDC04602000114431C012209
:102F400010B5994200D30A1A552101F041FB10BD7A
:102F500010B50400FFF75CFD002C02D11648FFF706
:102F600065FC072162680A4207D1A3680B4204D1BD
:102F70009A4202D29B1ACF2B02D80F48FFF756FC79
:102F8000E368FF2B02D82369002B02D10A48FFF720
:102F90004DFCA3686268190048390A6222696C3BDB
:102FA000CB601A61626905485A61054A1A62E36892
:102FB0002268FFF7A5FF10BD694A000080100020BD
:102FC0000905000010B5FFF7C3FFFFF75BFE10BD5A
:102FD000104B10B5DC68A0622300E06A2C339842E5
:102FE00012D1E31DDB7F002B07D1A31DDB7F9B07E5
:102FF00003D16269236913605A600F20FFF752FE04
:103000000548FFF713FC10BD0368E362FFF73AFEC3
:10301000E2E7C04680100020524A000010B50400CC
:10302000FFF744FF2000FFF7D3FF10BD10B50400E9
:10303000FFF73CFF2000FFF755FFFFF73DFF10BDF6
:103040000B4B70B5DE68036804000D00002B02D046
:103050000848FFF7EBFB002D06D02660290003206F
:10306000B462FFF753FE70BD01204042FBE7C0464B
:1030700080100020314A000070B5046805000E0081
:10308000002C0CD0631DDB7F032B02D00448FFF71C
:10309000CDFB002320002B60A662FFF7F3FD70BD7F
:1030A000244A000010B5041E02D10448FFF7BEFBFD
:1030B000002324606460A36010BDC046AC4A0000D9
:1030C000EFF30983203383F3098862B67047000069
:1030D000024A0349136A0B401362704700ED00E097
:1030E000FFFF00FF10B50F300FD072B6EFF3098469
:1030F000203C84F3098880235B04E361FFF73CFEF6
:10310000024B002800D1024BA36110BD1B0500003B
:103110002605000010B500F09BFC054800F0C4FD3A
:1031200000F040F8FFF701FA00F004F810BDC046C7
:10313000404B000010B500F023FD10BD10B5FFF7A7
:10314000E7FB074B1A689A4207D0DB6899689368D7
:10315000994202D20348FFF769FB62B610BDC04630
:1031600080100020244B000010B572B6FFF7E8FB7A
:1031700010BD10B5FFF7FCFB62B610BD02000300E6
:1031800010B50400D6321278DE331A7000F0F2FE69
:1031900063681B68002B02D001212000984703239D
:1031A000237010BD10B500F03FFE10BD012310B517
:1031B00078220400037000214C3001F009FA00234A
:1031C0006360A36010BD000070B504000D0000280E
:1031D00001D0002902D10E48FFF728FB72B6FFF795
:1031E00081FB2378013B012B02D90948FFF71EFB25
:1031F00020004022002165600C3001F0E9F9200038
:1032000000F024FE02232370FFF798FF002070BD1A
:10321000304B000070B5041E02D11A48FFF706FBC0
:1032200072B6FFF75FFB2378013B042B02D91548E8
:10323000FFF7FCFA200000F069FE002325000226BB
:103240006360013323700C354C3476422B68002BBD
:103250000ED05869002803D031000C30FFF70CFF66
:103260002B689869002803D031000C30FFF704FF69
:10327000002308C5A542E9D1FFF76EFDFFF75EFF09
:1032800070BDC0461C4B0000F8B504000E001500D0
:10329000FFF7BEFB002C01D0002D02D11248FFF732
:1032A000C5FA2378042B02D00F48FFF7BFFAB70006
:1032B000E719FB68002B02D00B48FFF7B7FA6869E3
:1032C000FD60002803D01422002101F081F9A869D3
:1032D000002803D01422002101F07AF931002000E7
:1032E00000F052FEF8BDC0460B4B0000F8B50400DC
:1032F000FFF78EFB002C02D11648FFF797FA2378D0
:10330000042B02D01348FFF791FA2500270002266C
:10331000A368114A10351340A3604C3776422B68DE
:10332000002B0ED05869002803D031000C30FFF775
:10333000A3FE2B689869002803D031000C30FFF7FA
:103340009BFE002308C5BD42E9D1200000F022FE0B
:10335000F8BDC046F64A000001000100F7B50400C0
:103360000D0016000193FFF753FB002C01D00F2D29
:1033700002D90F48FFF75AFA0123AB4062899FB286
:10338000134202D00A48FFF751FA6389019A1F439A
:10339000AB1C9B00E3185B6867819B6929001A607E
:1033A00000229E6020005A60DA6000F059FEF7BDEE
:1033B000E54A0000F7B504000D0016000193FFF781
:1033C00027FB002C01D00F2D02D90F48FFF72EFA52
:1033D0000123AB4022899FB2134202D00A48FFF773
:1033E00025FA2389019A1F43AB1C9B00E3185B68F5
:1033F00027815B6929001A6000229E6020005A60C4
:10340000DA6000F09DFFF7BDD34A0000037870B585
:10341000052B0AD10425054C022023782B43237069
:10342000FFF704FE2378AB43237070BD9420074060
:103430000223F7B5020003700023DC3213608360BF
:1034400003000500022704004C330C3501937F4232
:103450002B68002B13D0FFF787FE2B6858690028D4
:1034600003D039000C30FFF707FE2B68986900285D
:1034700003D039000C30FFF7FFFDFFF77AFE00267E
:10348000019B40C59D42E3D12300C4331E70200040
:1034900000F04AFD63681B68B34202D0310020008F
:1034A0009847F7BD037870B50400052B2BD00200B8
:1034B000E03213700523037043681B68002B01D0B2
:1034C00004219847250000230226A3600C354C34C4
:1034D00076422B68002B13D0FFF746FE2B68586905
:1034E000002803D031000C30FFF7C6FD2B68986927
:1034F000002803D031000C30FFF7BEFDFFF739FE86
:103500000435A542E5D170BD017810B5052908D173
:103510000300E0331B78037043681B68002B00D066
:10352000984710BDF7B50600C43633780400002B69
:1035300001D0002333702300D4331A0020000193FC
:1035400000F062FD63689B68002B18D1019B1A781C
:10355000602315001D401A4237D00021200000F0E2
:103560001DFF0021200000F00FFF63681B68002B87
:1035700002D006212000984706233370F7BD2000B3
:1035800098470028E2D023002700DA331A785B78C6
:10359000CC371B0213433A689A4200D93B60019B27
:1035A0003D681B787F2B00D81CE1002D00D10CE179
:1035B00009233370FFF7D8FD22000021C8323B6891
:1035C00012682000FFF7F6FE09E123007F21D533C2
:1035D0001B780A401B0213438C4A934200D1DCE063
:1035E00028D88022520093425CD00FD8012B51D0B2
:1035F000022B00D1A2E0002BAFD122002100C83263
:10360000DC311160022151609360BCE781225200DD
:10361000934200D1A9E0FF32FF3293429DD12300B3
:10362000D6331B78012B98D12200DC32118801336C
:103630000B4342E08022120193424CD022D8A022B8
:10364000D200934240D0724A9B18012B00D984E7E4
:103650002300D8331A785B7821001B021343220021
:103660006068D632D7314768127820000978B847A9
:10367000002800D171E723004268C8331A6002684D
:103680005A601FE09022120193422BD0614A93426C
:1036900000D062E7604A2300C8331A6002225A60F1
:1036A000002216E02300D6331B78012B00D054E70C
:1036B00022000221DC3213888B4313802300C8339D
:1036C0001D605D609D605EE72300544AC8331D6045
:1036D0005D609A6057E723002200C833DF321A602A
:1036E0000122CDE72378042B11D1FFF73DFD200007
:1036F000FFF7FCFDFFF73DFD23000321DF331D70C5
:10370000636821701B68002B01D0200098472300BC
:10371000D6331B78002B0BD02200DF32137004232A
:10372000237063681B68002B02D002212000984799
:1037300022000023C8321360536065E723000F2185
:10374000D8331B78200019405BB2002B0ADA00F056
:1037500045FC012804D0022800D0FEE6304A9AE752
:10376000304A98E700F024FCF3E72300D6331B78B7
:10377000002B00D0F1E62300D8331B780F2219006C
:1037800011401342D4D05BB22000002B02DA00F0CB
:1037900013FECDE700F006FECAE72300D6331B7800
:1037A000002B00D0D9E62300D8331B780F22190054
:1037B00011401342BCD05BB22000002B02DA00F0B3
:1037C000EDFDB5E700F0E0FDB2E714233370FFF73D
:1037D000CBFC2B002A0000212000FFF7BFFDFFF7E4
:1037E000C8FCCBE6002D08D015233370FFF7BCFCD6
:1037F0002200C8323B681268EDE70B233370FFF7F5
:10380000B3FC2B002A002900DBE6C04602030000BF
:1038100000FAFFFF020C00003D4B00007D3100006C
:103820003B4B0000394B000070B50600C436040065
:103830003078002842D00638C3B20F2B52D80F2858
:1038400050D8FCF783FE3E4F4F0825324F4F4F4F65
:103850004F4F4F4F3B3B2300CC339A7B18680E33BE
:103860005B781B021343984212D2E368198AFCF773
:10387000FDFE0D1E0CD1FFF777FC2B002A0029005E
:103880002000FFF797FDFFF774FC0A2333700BE06D
:1038900014233370FFF768FC002320001A0019007E
:1038A000FFF75CFDFFF765FC70BD2300D0331B689C
:1038B000002B01D0200098470023E7E70B48FEF7D4
:1038C000B5FF0021200000F069FD0021200000F07C
:1038D0005BFD63681B68002B02D00621200098471F
:1038E0000623D3E70148FEF7A1FFDDE7C84A000041
:1038F00070B50500C4352B780400142B2FD01FD8C9
:10390000062B0CD005D8002B06D01C48FEF78EFFE6
:1039100024E0093B022BF8D81848FEF787FF002166
:10392000200000F03BFD0021200000F02DFD636829
:103930001B68002B02D006212000984706231AE0BE
:10394000152BE2D10A3B2B70FFF70EFC0023200061
:103950001A001900FFF72EFDFFF70BFC70BDC368BE
:103960009B695B68002BF9D10300D0331B68002BE7
:1039700000D0984700232B70F0E7C046BC4A0000F7
:1039800010B500F067F810BD704770470322F0B51E
:10399000FF26C0250240D2009640890191400A4F7F
:1039A00083089B00DB19AD005C591F22B4430C4314
:1039B0005C51012302409340C02240098000C0199D
:1039C000520083500360F0BD00E100E01F2301229C
:1039D00003409A4030B543090B4C0C4D9B0019191C
:1039E0005B19DA67C0235B00CA50032183080840D3
:1039F00088409B001B19C024FC318140A4001A5947
:103A00008A431A5130BDC04600E100E004E100E005
:103A100070B504000D000B2802D90B48FEF706FF15
:103A200003210F2323400C408C40FC31A140AD0109
:103A3000A540083B054A9B089B009B18DA698A430E
:103A40001543DD6170BDC046D44D000000ED00E0BF
:103A50007047000000239C4688236246F0B580250D
:103A600089B06C46314832495B01C2504358AD00C1
:103A70002B43435003682F490B40210003602E4B1A
:103A8000C4CBC4C1C4CBC4C1C0CBC0C12B4B2C4E12
:103A9000996C624631409964D96C3140D9648A216D
:103AA000284B1970284B863959705E781C31314388
:103AB00059702900950065598D4203D00132082ABA
:103AC000F8D1013A8021D20049420A43D2B21A7099
:103AD000DA789F310A40DA7000225A7102329979FD
:103AE0001142FCD0102299791142FCD10C219A7913
:103AF0000A40082AFBD1013A1A7151325A71383AF8
:103B000099791142FCD0402299791142FCD00F4A98
:103B10000F4981500F4A1049815000220C211A7020
:103B20009A790A400C2AFBD109B0F0BD007004401C
:103B300038100000FFFFF3FF04460000009004402F
:103B4000FFF8FFFE00500640004006404410000011
:103B500000000110041000000000010110B57446BF
:103B6000FEF71EFF72B6FEF7EBFEFEF7ABFEFEF7AA
:103B7000FFFE62B6FEF730FF2000FFF7B3FA10BD7C
:103B8000064B074A10B55A6000229A600732082196
:103B90000B201A60FFF73CFF10BDC04610E000E0AC
:103BA0007FBB000070B505000C0016001F2902D96C
:103BB0003248FEF73BFE01233149A3406A69062ED5
:103BC0000CD113436B618D4252D12E4B8022A40045
:103BD00035E02D4B9D4207D12C4B12E09A436A6190
:103BE0008D42F6D1274B0CE0294B9D421AD0294B30
:103BF0009D4219D0284B9D4218D02048FEF716FE52
:103C00000023162E18D83000FCF796FCE01BE012BB
:103C1000171BE0161616161616161616E01E222587
:103C2000292C2F001D4BECE71D4BEAE71D4BE8E765
:103C30000422A400FF32E25070BD8122A400520091
:103C4000F9E70022A400F6E78022A4009200F2E740
:103C5000C022A400FAE78022A400D200EBE7A02251
:103C6000A400FAE7C022A400F7E7E022A400F4E7EA
:103C7000054B9D42B8D1054BA8E7C046F14D000069
:103C800000F00F400090044040F00F4000A00440BE
:103C900080F00F40C0F00F4000F10F4000B0044032
:103CA00000C0044000D00440F8B5F8230C490D4A88
:103CB0009B018C5823438B50A52304009B00C718FD
:103CC000260000257268E9B220680135FFF76AFF17
:103CD0000436202DF6D18434BC42F1D1F8BDC04663
:103CE000007004403810000000690123C8401840EB
:103CF00070470000064B1A783F2A00D9FEE7187873
:103D0000421CD2B21A70034B8001C0187047C046E3
:103D10002008002024080020F7B500258B1C9B00FC
:103D2000C01847680C00BB69AB421BD05D8288237A
:103D3000788A254D020413434E01C0B27351FFF738
:103D4000D9FFAE1970600126A3001E43C823788AEC
:103D5000F60002041343C0B27351FFF7CBFFAD1955
:103D6000686008257B69002B1DD000221A8202237F
:103D7000A100154E0B43DB009A510193387CFFF7ED
:103D8000B9FF019B0022F31858600323A1000B43E5
:103D9000DB009A510193387CFFF7ACFF019BF618CA
:103DA000042370601D4303223B681340012B03D0A2
:103DB000023A1543002B01D010231D43034B30342E
:103DC000A400E554F7BDC046000E002000200740C7
:103DD00013008A1C9200F0B580184468890060695D
:103DE000027C114302220A43218A994200D9190018
:103DF00000230C4DD200AC188B420DD1417C1B042A
:103E00008C011C4388232343AB500123027C59407F
:103E1000534041740374F0BD8668F75C6668F754DC
:103E20000133E9E7000E002010B50548FFF7BEF9A1
:103E300080230449044ADB02885803438B5010BD99
:103E4000241100200070044004100000037810B515
:103E5000012B40D1204B98423DD1002210001F4B36
:103E6000D100C850013259184860102AF8D1802278
:103E70001B481C49D20244582243425080201A4A0F
:103E8000517B01435173517B49B20029FBDB174839
:103E9000190AC9B201701648190CC9B20170154946
:103EA0001B0E0B70FF23144918200B7013490B7065
:103EB00013490B74517BBF3B0B4303215373114BCD
:103EC000197000235370104A013311780B4313709B
:103ED0000221FFF75BFD10BD24110020000E002021
:103EE0000070044034100000FF2007409C20074071
:103EF000B0200740B42007408020074088200740BA
:103F0000002007409420074084200740037810B524
:103F1000012B05D1034B984202D11820FFF756FD23
:103F200010BDC04624110020F8B500270E4C0F4BE1
:103F300026001F700223943633700D4B3900C36086
:103F40000500FFF7E9FE2200FF2388321370DE35FB
:103F5000083A13702F70177613738434603B237004
:103F60009E3B0C323370F8BD002007402008002033
:103F7000084E00007F22DE3003781340014A1370A0
:103F80007047C0469820074010B5102901D8FFF7A8
:103F9000C3FE10BD0123002004491A0030329200F4
:103FA00001335054102BF8D17047C0460020074011
:103FB00000200F290ED8084B8900C9180A78082359
:103FC000100018401A4205D00878063B18404342BA
:103FD000584101307047C046C020074000200F29DB
:103FE0000ED8084B8900C9180A780423100018401D
:103FF0001A4205D00878023B18404342584101302C
:104000007047C046C0200740F0B58E008019C368D5
:10401000124D9C690021A37C3343DB00EF18BC46A2
:1040200067467F687F5C575401310829F8D1C06822
:104030008031428A120411435951E37C002B07D08E
:104040000121A37C5940C8233143C90013434B517C
:10405000012342695374E374F0BDC046000E002092
:10406000023189004018426810B594690123206824
:10407000002805D0518A40180138FCF771FA83B244
:10408000238210BD8B1C9B00F7B5C3185D688F00A1
:10409000AC696E8AA37C1F43964200D91600114A70
:1040A00000230092FA009446009A624401929E42D4
:1040B0000FD1E27C6B8A95011B042B438825664651
:1040C0002B43009DAB5101235340E374FFF7C8FF1E
:1040D000F7BD019A5768FF5C3A00A768FA540133AC
:1040E000E5E7C046000E00207346F0B58D4E85B062
:1040F00034780393E4B2FEF753FC630707D58A488C
:104100004368DB68002B00D09847042333700823F2
:104110001C420ED101252C4200D1DBE08248FFF782
:1041200087F93570FEF758FC0398FEF7DBFF05B002
:10413000F0BD01207D4B7C4C1B781A0901920232A4
:1041400002929200A21899085768DA08019B014070
:1041500002409B000B4350000343002A03D1BA697D
:10416000002A00D09174724ADD00AA5893061B0FF2
:10417000092B16D00D2B06D0012B68D008233370E5
:104180003478E4B2C3E701226389019993436381E0
:1041900020007B6898472021664A13788B43137070
:1041A000ECE77B69002BE9D0019B002B16D12300A3
:1041B000D4331B88052B11D122002300D63212786C
:1041C000DE3320001A70FFF7D5FE63681B68002BF2
:1041D00002D001212000984703232370544B7A69B1
:1041E0005B5951689B019B0D1068591851608142C1
:1041F00010D29168CB18936072B6FEF7A1FB7B6971
:1042000020000CCB0199D21AFFF7E2FDFEF7B0FBBC
:1042100062B6B3E70122019B9A402389934323812D
:10422000029B9B00E3185B689B68002B02D0200078
:104230000199984772B6FEF783FB0021029B9B0011
:10424000E3185B6858690C30FEF716FFDEE7BB69C0
:10425000002B93D09501AD0D72B6FEF771FB2A00CD
:1042600020000199FFF70EFFFEF782FB62B6002DDA
:1042700000D183E7BB699A6852199A605A6852194B
:104280005A601A68521B1A601A8A013A92B21A824C
:104290007B8AAB4202D8002A00D06FE70122019B43
:1042A0009A40638993436381029B9B00E3185B6898
:1042B000DB68002B02D020000199984772B6FEF708
:1042C0003FFB029B9B00E41863689B6918005968D8
:1042D0000C30B9E763B2002B01DA8023337002227D
:1042E000144204D014490B78DBB20B703270E30631
:1042F0000CD50D480378042B06D1FFF7D3F8202303
:104300000E4A11780B4313701023337020252C4272
:1043100000D107E7094A04481378AB431370FFF74D
:10432000F3F8FEE68020074024110020902007408B
:10433000000E00209420074088200740842007407A
:10434000F8B5002915D10300C4331B780B2B10D10D
:10435000C3680C4A5C8A9D69C823AE7C240423434D
:10436000F700BB50012373408826DB0034439C5088
:10437000E9748B1C9B00C3185B685B691A68FFF7C4
:1043800027FDF8BD000E0020034B8900C918022349
:104390000A7813430B707047C020074010B5FFF731
:1043A000F3FF10BD0222034B8900C9180B78934319
:1043B0000B707047C020074010B5FFF7F3FF10BD2A
:1043C000F0B5CE469946030C9C46130447461B0C99
:1043D0001D000E0061460404240C80B50700100C7B
:1043E0004B436543414360432C0CC01824188C4652
:1043F000A34203D980235B029846C44449467943CB
:104400005643230C2D042D0C891963442404601990
:10441000C918C0BCB946B046F0BDC046F0B5574655
:104420004E464546DE46E0B504000D0092469946EC
:1044300083B08B4230D82DD049465046FCF73CF92A
:10444000290006002000FCF737F9331A9846203B74
:1044500034D49B4653465A46934042461F00534627
:1044600093401E00AF423BD8AF4200D179E05B469B
:10447000A41BBD41002B00DA76E00022002300924D
:10448000019301235A4693400193012342469340EE
:10449000009329E08242CFD90022002300920193A9
:1044A0000C9B002B01D01C605D600098019903B04B
:1044B000F0BCBB46B246A946A046F0BD42469B466C
:1044C00020239B1A5246DA40414613004A468A404E
:1044D000170042461F43534693401E00AF42C3D9C4
:1044E00000220023009201934346002BD8D0FB0703
:1044F00072081A4346467B080EE0AB4201D1A24245
:104500000CD8A41A9D41012024196D410021013EBF
:1045100024184D41002E06D0AB42EED9013E24199D
:104520006D41002EF8D1009801995B460019694150
:10453000002B24DB2B005A464446D3402A00E2409D
:104540001C005B461500002B2ADB26009E40330032
:1045500026004746BE403200801A994100900191E2
:104560009EE7A342BCD882E74246202300219B1A43
:104570000022009101920122DA40019285E7424631
:1045800020239B1A2A0046469A402300F3404446C3
:1045900013432A00E2401C005B461500002BD4DACE
:1045A00042462F002023260097409B1ADE403B0006
:1045B0003343CDE730B500240139A24201D10020B8
:1045C00005E0035D01340D5DAB42F6D0581B30BDF4
:1045D00003008218934200D1704719700133F9E744
:1045E000002310B59A4200D110BDCC5CC4540133F5
:0245F000F8E7EA
:1045F4008023037003785BB2002BFBDA7047000062
:1046040020000000400000008000000000010000C5
:104614000002000000040000000500000006000085
:104624005200510050004F0004001D001B00000008
:104634002800E5003A000000E200E900EA00B500C5
:10464400B600B700CD008301CC008A019201940129
:104654002102230224022502260227022A02B30091
:10466400B4006F0070009F01CB019F02A002E20022
:10467400E900EA00B500B600B700CD008301CC0024
:104684008A019201940121022302240225022602B6
:1046940027022A02B300B4006F0070009F01CB010F
:1046A4009F02A0026368537973556E6C6F636B004D
:1046B40080F02F40C0F06F4040F02F4040F01F408A
:1046C400C0F00F4000F02F40C0F04F4063685379B2
:1046D40073556E6C6F636B006368537973556E6CBE
:1046E4006F636B00A1200000C11F0000792100004E
:1046F400B31F00000300000000000000A71F00001B
:1047040000000000200000009806002000000000C7
:104714000200000000000000030000000000000090
:10472400A71F00000000000008000000AC060020E5
:1047340000000000020000000000000004140C004F
:10474400744700005E470000504700000C036100FE
:1047540073002D006A006E00000014034A006F000D
:104764006E002000480069006700670073000000C5
:104774000403090409023B00020100A0FA09040031
:104784000001030101000921110100012244000775
:104794000581030800010904010001030000000968
:1047A4002111010001226D0007058203200001127E
:1047B40001000200000040EDFE02000100010200C1
:1047C4000105010980A101850319012AB70015011A
:1047D40026B700950175108100C0050C0901A101DF
:1047E400850419012AA002150126A002950175105D
:1047F4008100C005010906A1018506050719E02904
:10480400E71500250195087501810205071900299E
:10481400EF1500250195F07501810205081901299C
:1048240005950575019102950175039101C0050176
:104834000906A101050719E029E7150025019508D6
:10484400750181029501750881010507190029FF89
:10485400150026FF00950675088100050819012931
:1048640005150025019505750191029501750391C2
:1048740001C06368537973556E6C6F636B00636832
:10488400436F7265416C6C6F6346726F6D546F70E9
:1048940049006368506F6F6C4F626A656374496E58
:1048A4006974416C69676E6564000000504E0000D5
:1048B400201200202012002020120020504E000060
:1048C400000000000000000000000000504E000046
:1048D400000000000000000000000000504E000036
:1048E400000000000000000000000000504E000026
:1048F400000000000000000000000000504E000016
:10490400000000000000000000000000504E000005
:10491400000000000000000000000000504E0000F5
:1049240000000000000000000000000063685379EC
:104934007347657449646C655468726561645800B2
:104944006368537973556E6C6F636B006330005307
:1049540056233400535623350053562336005356FA
:104964002337005356233800535623390053562314
:10497400313000535623313100737461636B206FFF
:10498400766572666C6F770069646C650000000080
:104994005049000000FCFF1F0004002040070020D5
:1049A4002008002063685654446F52657365744947
:1049B4000063685F646C6973745F696E73657274B5
:1049C4000063685654446F53657449005F5F7363B2
:1049D400685F72656164795F6168656164006368DA
:1049E400536368476F536C65657053005F5F73630F
:1049F400685F72656164795F626568696E640063AB
:104A040068536368526561647949006368496E73E9
:104A140074616E63654F626A656374496E6974009C
:104A24006368546864526573756D654900636854BE
:104A3400686453757370656E6454696D656F7574DD
:104A440053006368546864536C656570530063680D
:104A54005468644578697453006368537973556E78
:104A64006C6F636B0063685468644372656174655A
:104A740053757370656E6465644900006D61696E99
:104A8400002C0438040448080C10141C2024252687
:104A940027000000000024040100040000000000BE
:104AA400000C00102830340063684D74784F626A3B
:104AB400656374496E6974005F7573625F65703015
:104AC4006F7574005F7573625F657030696E007531
:104AD400736253746172745472616E736D69744954
:104AE40000757362537461727452656365697665A7
:104AF400490075736244697361626C65456E6470E4
:104B04006F696E74734900757362496E6974456E9A
:104B140064706F696E74490075736253746F7000CA
:104B24006368537973556E6C6F636B00757362536E
:104B340074617274000100000000000000F00F4076
:104B44001600000006000000060000001600000029
:104B5400010000000100000001000000010000004D
:104B6400010000000100000001000000010000003D
:104B7400010000000100000001000000010000002D
:104B84000100000001000000050000000500000015
:104B9400010000000100000001000000010000000D
:104BA40001000000010000000100000001000000FD
:104BB40001000000010000000100000001000000ED
:104BC40040F00F4006000000060000000600000050
:104BD40006000000010000000100000001000000C8
:104BE40001000000010000000100000001000000BD
:104BF40001000000010000000100000001000000AD
:104C0400010000001200000012000000010000007A
:104C1400010000000100000001000000010000008C
:104C2400010000000100000001000000010000007C
:104C3400010000000100000001000000010000006C
:104C44000100000080F00F40060000000600000094
:104C54000600000006000000060000000600000038
:104C64000600000006000000010000000100000032
:104C7400010000000100000001000000010000002C
:104C8400010000000100000001000000010000001C
:104C9400010000000100000001000000010000000C
:104CA40001000000010000000100000001000000FC
:104CB40001000000010000000100000001000000EC
:104CC4000100000001000000C0F00F4006000000D9
:104CD40006000000060000000600000006000000B8
:104CE40006000000060000000600000001000000AD
:104CF40001000000010000000100000001000000AC
:104D0400010000000100000001000000010000009B
:104D1400010000000100000001000000010000008B
:104D2400010000000100000001000000010000007B
:104D3400010000000100000001000000010000006B
:104D440001000000010000000100000000F10F401C
:104D5400010000000100000001000000010000004B
:104D6400010000000100000001000000010000003B
:104D7400010000000100000001000000010000002B
:104D8400010000000100000001000000010000001B
:104D9400010000000100000001000000010000000B
:104DA40006000000060000000100000001000000F1
:104DB40001000000010000000100000001000000EB
:104DC40001000000010000000600000001000000D6
:104DD4006E76696353657453797374656D48616E57
:104DE400646C65725072696F72697479005F706186
:104DF4006C5F6C6C645F7365747061646D6F646523
:104E040000000000000000002535000029380000E3
:104E1400F1380000400040000C1200201011002066
:084E2400010000000010002055
:084E2C00F0F5FF7F010000001A
:104E34002A0600209D1200000100000065240000E5
:0C4E4400C1240000052500000725000027
:04000003000004E114
:00000001FF
